{
  "txid": "4a4c48638ffd14fca86c663ce6bfb6edd7dbe8538284cd23bad5c21a498d086e",
  "hash": "3f9dab9651c4c673a51efa52ddc81d007346b59c34d4c913d54dda78f59e0447",
  "version": 2,
  "size": 191,
  "vsize": 110,
  "weight": 437,
  "locktime": 584893,
  "vin": [
    {
      "txid": "3620cd1bc4fb640e7bb2bd1365255ad67b03020e11c6326a6515d5993a67d3ed",
      "vout": 0,
      "scriptSig": {
        "asm": "",
        "hex": ""
      },
      "txinwitness": [
        "3044022070e1e14bd684a8279233c4f027d149c7322c633233c9b8ea1a0df26ce5e210200220210ce5868e0196cbf8e644dc715098b78806e24864d49427d9b16e728e2026b501",
        "02fd332d8941bd2c0d11179f6c8b214f1527cc51c855051365cdcbb267b06b3857"
      ],
      "sequence": 4294967293
    }
  ],
  "vout": [
    {
      "value": 0.00087519,
      "n": 0,
      "scriptPubKey": {
        "asm": "0 b8f333fed28b134825708045f8bc6e5b8d415724",
        "hex": "0014b8f333fed28b134825708045f8bc6e5b8d415724",
        "reqSigs": 1,
        "type": "witness_v0_keyhash",
        "addresses": [
          "bc1qhren8lkj3vf5sftsspzl30rwtwx5z4eyhwhyhk"
        ]
      }
    }
  ],
  "hex": "02000000000101edd3673a99d515656a32c6110e02037bd65a256513bdb27b0e64fbc41bcd20360000000000fdffffff01df55010000000000160014b8f333fed28b134825708045f8bc6e5b8d41572402473044022070e1e14bd684a8279233c4f027d149c7322c633233c9b8ea1a0df26ce5e210200220210ce5868e0196cbf8e644dc715098b78806e24864d49427d9b16e728e2026b5012102fd332d8941bd2c0d11179f6c8b214f1527cc51c855051365cdcbb267b06b3857bdec0800",
  "blockhash": "00000000000000000012d9c73af2534a9fef52e1598d86244d0143072e1befcb",
  "confirmations": 178,
  "time": 1562830715,
  "blocktime": 1562830715
}
