{
  "id": "782",
  "data": {
    "address": "3MSy6m8gqSjJ3maAXT2d2XbjN1Z85h8R5E",
    "tx": {
      "txid": "b3064c23e45afe710fae26e5dff0bad060f878e9ab744f040cbaf50517617c12",
      "version": 2,
      "lockTime": 585503,
      "vin": [
        {
          "txid": "7b5908daba87b7592bd599852fc65bf64f0749f2bcb6f2176d871b4a70cccf34",
          "vout": 2,
          "sequence": 4294967293,
          "n": 0,
          "addresses": [
            "3PcSB4PUdHCE3MSRMVkZ4xi6kdk9nJm2dY"
          ],
          "value": 25815016,
          "hex": "1600146efdb7eacc61b4c3dd237eb277220dbcc086f15f"
        },
        {
          "txid": "3c225568d0b5084e8d8c645ef4cc2bc2f156d3b6575fcf1f4ea0b287ef39363a",
          "sequence": 4294967293,
          "n": 1,
          "addresses": [
            "3CqmeYYEMy27uvc8qCkhxCXpzMPXktHaL3"
          ],
          "value": 11110,
          "hex": "16001404fc52239d9145a884d98ec1c72d077c6bf9f628"
        },
        {
          "txid": "b1f9d82fdff00e63dd8d7cd49e801306062e04ca88e9e7f8affb25b44265f807",
          "vout": 6,
          "sequence": 4294967293,
          "n": 2,
          "addresses": [
            "bc1qn6825fzd9scl9hrdxmnlr68ta7ug2aqt0gye66"
          ],
          "value": 43743080
        },
        {
          "txid": "f11cec7feb1cfede716c390faf35ab1c89dedf4be816f79bae5bd4747121017f",
          "vout": 2,
          "sequence": 4294967293,
          "n": 3,
          "addresses": [
            "3KLv9CF6N7UMZ4yuXk4dx5MMbAofoQEXYe"
          ],
          "value": 4684847,
          "hex": "160014dcb7e4e734ad7cfd314639bdfff361ec31cb4e73"
        },
        {
          "txid": "55bd81bd07c480b9dacd27e3d50267ecff3202b5ad61333d683b3a2fa0a02b01",
          "vout": 9,
          "sequence": 4294967293,
          "n": 4,
          "addresses": [
            "bc1qqxq243g5y94s2ezz8093hm4d4xtn3zfn6y2fvn"
          ],
          "value": 1004469
        },
        {
          "txid": "619c0110d3edf19e6a20e7fbb00f58896e2a1eb74441115abebc2860337b1ad0",
          "sequence": 4294967293,
          "n": 5,
          "addresses": [
            "35tg8UbXYqDBCZvT4zvpjeJDxVTWiMQyvi"
          ],
          "value": 95000000,
          "hex": "16001493bad7ae5ed3f4bb85bea62f035b11d5017381e1"
        },
        {
          "txid": "31c0acd80343c290161e3e6981138e3e541c53b84a005ac11c66981217b68b4a",
          "sequence": "4294967293",
          "n": 6,
          "addresses": [
            "3LvxyegzPtNvamtMZjjqVGjVxo9G3ix9LF"
          ],
          "value": 9900000,
          "hex": "160014ecbba90044167d8456a9edec2b4b0a6e0c69f53e"
        }
      ],
      "vout": [
        {
          "value": 6469948,
          "n": 0,
          "hex": "76a914eb16c8da455a654da428b5ea8e9ab70e1c77094d88ac",
          "addresses": [
            "1NS36BUQCFfbooJtwr4RGm3Q7Nr8HU2GJb"
          ]
        },
        {
          "value": 2531815,
          "n": 1,
          "hex": "00145c7389112549fae18b1f561a0e073d27bb215574",
          "addresses": [
            "bc1qt3ecjyf9f8awrzcl2cdqupeay7ajz4t5t3dl4l"
          ]
        },
        {
          "value": 101942,
          "n": 2,
          "hex": "a914d8ba55c2653eecf91b8cad78e2378b7252512bdf87",
          "addresses": [
            "3MSy6m8gqSjJ3maAXT2d2XbjN1Z85h8R5E"
          ]
        },
        {
          "value": 53985009,
          "n": 3,
          "hex": "a914eee76ae284be1c0b07d9a34271b191fa71056c3c87",
          "addresses": [
            "3PUDyNSbPrYs7b9stS7qacYtYpTgFrR6of"
          ]
        },
        {
          "value": 604752,
          "n": 4,
          "hex": "76a914fc4c55f75c576515c4c259b017c20f42f0b9f26f88ac",
          "addresses": [
            "1Q12jFGdxsyo5E5EkKppiCyJakX5GGVfq9"
          ]
        },
        {
          "value": 100000000,
          "n": 5,
          "hex": "76a9140df997a4c1a966af50353d46ab18c65e5a686d8088ac",
          "addresses": [
            "12GtnUYMEycqvqm1e53DXtiUggsKtcbncD"
          ]
        },
        {
          "value": 1073788,
          "n": 6,
          "hex": "76a91462626b16ae1130ea533bc8b8586672860cad4dcf88ac",
          "addresses": [
            "19yD82Nz9aEwZ1hCYK36Uq2VsJY27YATSR"
          ]
        },
        {
          "value": 1034750,
          "n": 7,
          "hex": "a914f8af0e73dd1cedc8332f8c32a64a0dc45690e48e87",
          "addresses": [
            "3QMwDFesxMHG5ywDdACC8yACZudrMfweL8"
          ]
        },
        {
          "value": 963559,
          "n": 8,
          "hex": "001490cb1cc7d3051f5c1a43245a45ae0be6ed5b5f90",
          "addresses": [
            "bc1qjr93e37nq504cxjry3dyttstumk4khusgwlkn8"
          ]
        },
        {
          "value": 1203515,
          "n": 9,
          "hex": "a914fe6b21461d620d993b65fd9828aeb7a4a62ed15c87",
          "addresses": [
            "3QtFtnmXVJx7bsAQpjUj1kmhXSJqXqa2wU"
          ]
        },
        {
          "value": 627549,
          "n": 10,
          "hex": "a91469f376137dd3406ac0b9d6e47b8d3f175ba744f687",
          "addresses": [
            "3BMEXfm8ThtvmDzSSkhfG1qjaw4osqmRf3"
          ]
        },
        {
          "value": 436694,
          "n": 11,
          "hex": "76a9142cf1e9ceae3a0541897d1361bff89025a2e599c588ac",
          "addresses": [
            "156eXsaMkRgAS9YqkMN3m8G27STemN5frT"
          ]
        },
        {
          "value": 1087147,
          "n": 12,
          "hex": "0014c14f073542b47f9169506709de5e5ea450436b2e",
          "addresses": [
            "bc1qc98swd2zk3lez62svuyauhj753gyx6ewqh2s76"
          ]
        },
        {
          "value": 10000000,
          "n": 13,
          "hex": "a914c042627e67b334594e81ad65adc5e5aefc0a691e87",
          "addresses": [
            "3KDbBsHokw1pvcHwXRpH2FjSLc9YvaHXZh"
          ]
        }
      ],
      "blockHeight": 0,
      "confirmations": 0,
      "blockTime": 0,
      "value": 180120468,
      "valueIn": 180158522,
      "fees": 38054,
      "hex": "0200000000010734cfcc704a1b876d17f2b6bcf249074ff65bc62f8599d52b59b787bada08597b02000000171600146efdb7eacc61b4c3dd237eb277220dbcc086f15ffdffffff3a3639ef87b2a04e1fcf5f57b6d356f1c22bccf45e648c8d4e08b5d06855223c000000001716001404fc52239d9145a884d98ec1c72d077c6bf9f628fdffffff07f86542b425fbaff8e7e988ca042e060613809ed47c8ddd630ef0df2fd8f9b10600000000fdffffff7f01217174d45bae9bf716e84bdfde891cab35af0f396c71defe1ceb7fec1cf10200000017160014dcb7e4e734ad7cfd314639bdfff361ec31cb4e73fdffffff012ba0a02f3a3b683d3361adb50232ffec6702d5e327cddab980c407bd81bd550900000000fdffffffd01a7b336028bcbe5a114144b71e2a6e89580fb0fbe7206a9ef1edd310019c61000000001716001493bad7ae5ed3f4bb85bea62f035b11d5017381e1fdffffff4a8bb6171298661cc15a004ab8531c543e8e1381693e1e1690c24303d8acc0310000000017160014ecbba90044167d8456a9edec2b4b0a6e0c69f53efdffffff0e3cb96200000000001976a914eb16c8da455a654da428b5ea8e9ab70e1c77094d88ace7a12600000000001600145c7389112549fae18b1f561a0e073d27bb215574368e01000000000017a914d8ba55c2653eecf91b8cad78e2378b7252512bdf87f1be37030000000017a914eee76ae284be1c0b07d9a34271b191fa71056c3c87503a0900000000001976a914fc4c55f75c576515c4c259b017c20f42f0b9f26f88ac00e1f505000000001976a9140df997a4c1a966af50353d46ab18c65e5a686d8088ac7c621000000000001976a91462626b16ae1130ea533bc8b8586672860cad4dcf88acfec90f000000000017a914f8af0e73dd1cedc8332f8c32a64a0dc45690e48e87e7b30e000000000016001490cb1cc7d3051f5c1a43245a45ae0be6ed5b5f903b5d12000000000017a914fe6b21461d620d993b65fd9828aeb7a4a62ed15c875d9309000000000017a91469f376137dd3406ac0b9d6e47b8d3f175ba744f687d6a90600000000001976a9142cf1e9ceae3a0541897d1361bff89025a2e599c588acab96100000000000160014c14f073542b47f9169506709de5e5ea450436b2e809698000000000017a914c042627e67b334594e81ad65adc5e5aefc0a691e8702473044022043c76cbe3c3a7729a99e3255169d44000fe060a37c51773e88ae006129037dcb02205c86be9cf9736639547e3b9012839a4fca55860c4298bafebf2d77cadde36e23012103c0506f30cb9eae252cc573617bb0f61604607c8965a1607c313e935d4c4e556a024730440220299f8acc997f01e8413a192e45f39ed542b9d1b5b4ed4488778e1b452a97c38e02200a2fff35c949ac4ffa5a420535e38290963c13b0879a9b218e171fa4b0e3177a012102278b1226fadbc226ebd933cb40ef869b710e118573daf6c9825aa91fa1e1be4b02473044022001d2911138ce453bbe52bb064132d56b0bc1941ea85d3e78c1e16d13cb161ffa022035253915218b2789f52e823275efd292688cb929fdb7782589fbbeeb2b1570ac01210234487b28f03e5797862868c06e1a7da471d3549e24396269260e02f74cc52b5c02473044022040e49ed5b9ee451b6a93ba2436a2796a27243cbf42c4e7852c8a8ced0d4ff47702205ac0946268e34e80223a6faa5773d149babce6306f2aa8e735ed0b46f40715200121039d3512d780cf4d2fa1b5294aa77fa2f471181120f04f87d93c9b3818b57689690247304402204d772b801dddda44f5ad57305eb89e93b7df9c3bdd3b68741d4fc2f7cfcf6b3302201ef7791bf04448810983539ccdbdd520da393afcd368e073644864c8b87ea4a2012103db24f51a77b4db0af3e7d7204395dbb9bbe638b889ca3d90880267dc1106aafe0247304402205d2a553f6e67b4cc0becb15f84e68d559bfd99a778a0095c9b2bb302dd755bad02202ae76c1f8af58b5badabca68b08c349f569b5990fdcccfde969010241029a07e01210302701a0eb5c50cabe3b2bf282038ba4e6b786d02a2b8444c924a39cc558c44b40247304402202bb18e170b3ded749e64f9b6a75ca704ace7b245043227f5c9a15733a3346541022009007108215f1cb1c571f28cef732fc7a6857705426909e0833b2961e7877643012102b58dcedb48c5fe3ebd04679bd7febfe9af7e912a67c3f27c821cd2d1dbebf7761fef0800"
    }
  }
}
